:0A0000000C945A000C9400000C94BC
:10000A0000000C9400000C9400000C9400000C9466
:10001A0000000C9400000C9400000C9400000C9456
:10002A0000000C9400000C9400000C9400000C9446
:10003A0000000C9400000C9400000C9400000C9436
:10004A0000000C9400000C9400000C9400000C9426
:10005A0000000C9400000C9400000C9400000C9416
:10006A0000000C9400000C9400000C9400000C9406
:10007A0000000C9400000C9400000C9400000C94F6
:10008A0000001027E80364000A00010000100001C4
:10009A001000010000002564000080C00200040076
:1000AA009E0002000A05A4000000F894EE27ECBBAB
:1000BA00F1E0F5BFE5BFE0936C008DE0A2E0BB275D
:1000CA00ED938A95E9F780E090E1A0E0B1E0ED9345
:1000DA000197E9F7E6EAF0E085919591009761F0DA
:1000EA00A591B59105901590BF01F00105900D926B
:1000FA000197E1F7FB01F0CF8BBFEFEFEDBFE0E136
:10010A00EEBFC0E0D5E00C948A00E0E0E1BBE0E29B
:10011A00E2B9E3B9EFEFE2BBA0E1AED07BD08399BD
:10012A000BC0859908C0F20131962F01AAEFB0E001
:10013A000E946B0301C0F5CF85990BC0839908C053
:10014A00F20131972F01AAEFB0E00E946B0301C0C0
:10015A00F5CF00240414050424F0442455241D9AE0
:10016A0001C01D98E0E0EA93A0E047D0E0E0F5E0A6
:10017A00FA93EA93E0EAF0E0FA93EA93F2010E9432
:10018A007D030E948A0384E00E94E4022896A0E08C
:10019A00B5E061D0C4CFFFCFAA93E881E07111F036
:1001AA00DB9A01C0DB98E881E07211F0DA9A01C0AB
:1001BA00DA98E881E07411F0D99A01C0D998E881F7
:1001CA00E07811F0D89A01C0D8988DE08A95F1F7B5
:1001DA00DC9A8DE08A95F1F7DC988DE08A95F1F743
:1001EA0078C0AA93A881D8DFE881E295E883A8813C
:1001FA00D3DF85E88A95F1F76CC0AA93E881F0E02D
:10020A00E65FFA4FE081A981AE0FEBDF7980688063
:10021A0022960895A2E00E943103ACE0E2DFA1E059
:10022A000E943103E0E06E2E7E2E0895AA93A881E3
:10023A00AA3011F0791448F0E0E0EA936394A62D0D
:10024A00DCDFA881AA3009F444C07394DE9AA8813D
:10025A00C8DFDE983EC0BA93AA931A93A981BA81DD
:10026A00ED91A983BA831E2FE03019F0A12FDEDFAA
:10027A00F5CF188123960895AA93D39AD29AD19A40
:10028A00D09AD49AD69AD59ADC98DE98DD98988036
:10029A00E881E058E0930C05E881E054E0930D050D
:1002AA00A4E1B0E00E946B030E9437030E94370367
:1002BA000E943703A0E270DF88EC90E00197F1F723
:1002CA00A8E28FDFA4E08DDFA5E88BDFA6E089DF57
:1002DA00A1DF21960895BA93AA931A930A93AA8141
:1002EA00BB8112960E948203309759F1AA81BB8181
:1002FA0014960E9482038F01309761F00230E0E089
:10030A001E0798F0F80131978F01AA81BB811496D4
:10031A00ED93FC93AA81BB811296ED91FD913196E2
:10032A00FE93EE933197AC81A083AA81BB810E9490
:10033A008203FF232AF0ED91FD913196FE93EE930D
:10034A0006C0AA81BB81EFEFFFEFED93FC93198101
:10035A00088125960895BA93AA9326970E948F0337
:10036A0010E0AC85BD85E0E0F0E0ED93FC93EA890E
:10037A00FB893196EA8BFB8B3197E4912E2FE03083
:10038A0009F415C1E12FE03039F4253211F411E0F6
:10039A0002C00E943F030AC1E130A9F4253219F4D0
:1003AA000E943F0302C112E040E000E02D3211F446
:1003BA0001E0FCC02B3211F44BE2F8C0203211F4F8
:1003CA0040E2F4C002C0E23039F450E013E02033D6
:1003DA0011F40068EBC003C0E33009F0E7C0203332
:1003EA0010F02A3308F007C0AAE05A9F502DE22FD6
:1003FA00E0535E0FDBC0E22FE33649F40E94460366
:10040A00E889F989A481AA930E944C03CEC0E337F4
:10041A0041F40E9446030E9452030E9418031E2FB1
:10042A000AC0E03761F40E9446030E9452030E9408
:10043A0024031E2F086002600F7730E034C0E436D0
:10044A0011F0E93611F4046002C0E53731F4ECE842
:10045A00F0E0EE83FF8315E00CC0E83511F4086084
:10046A0003C0E83709F0A1C0E6E9F0E0EE83FF83B4
:10047A0014E002FF14C00E9446030E945C03AB858D
:10048A00AA233AF4EA85FB850E947903EA87FB8767
:10049A004DE2403011F01F5F01C00B7F04C00E9483
:1004AA0046030E945C0300FD11C0151778F407FF8C
:1004BA0008C002FF04C00B7F242F115001C020E3A3
:1004CA0001C020E20E943F035150EFCF312F01FFBC
:1004DA0017C03030A1F003FF06C0EE81FF812591DD
:1004EA00EE83FF8305C0AE81BF812D91AE83BF83AA
:1004FA000E943F03503009F051503150EACF4BC0AF
:10050A0020E3EE81FF810E948603E887F987EE8166
:10051A00FF813296EE83FF83E885F985AA85BB853C
:10052A00AE17BF0750F02F5FA885B985EA85FB850E
:10053A00EA1BFB0BEA87FB87EFCF2A3328F003FF7E
:10054A0002C0295F01C0295D04FD1AC0213320F4CD
:10055A00A885B985119709F409C0531710F000FF4F
:10056A0001C013C020E207FF0BC020E3006102FFB5
:10057A0007C00B7F4A930E944C03503009F0515038
:10058A000E943F03503009F051503150A885B98577
:10059A00129708F0B5CF00FF08C0503031F0515023
:1005AA00E0E2EA930E944C03F8CF10E0E0CEAC857B
:1005BA00BD850E9482030E94960364960895FF9265
:1005CA00F82E26970E9491030E946403309719F42B
:1005DA00EFEFFFEF23C0DE0116960E9475038D012F
:1005EA000E946403EE83FF83E0E0E887E987DE0187
:1005FA001A960E9475030E948203FA93EA931A9349
:10060A000A93E0E7F1E0FA93EA93DE011A96A3DE91
:10061A009F01AE81BF81E0E0EC93F9010E9498034B
:10062A002A96FF900895BA93AA93A991B991EE27B1
:10063A00FF276D91662311F03196FBCF0895BA9387
:10064A00AA93AA27BB27E991F9910590002011F0F6
:10065A001196FBCFFD0108950E94F600A3E0B0E0D9
:10066A000C946B03A0E30E94D10088EC90E0019700
:10067A00F1F708952A93AD85BE85EF85F889099526
:10068A000895E889F9893497E88BF98B0895AD853F
:10069A00BE85EF85F88909950895A889B9891496C0
:1006AA000E948203EE83FF83AE81BF810895A889E9
:1006BA00B98914960E948203EA87FB870895DE01AE
:1006CA001C960E9475030E9482030895109639F0C1
:1006DA0080ED97E00197F1F7A8951197C9F708956A
:1006EA000024AF0DB01D0895F195E195F0400895ED
:1006FA006F2F660F660B762F0895ED91FC91119777
:10070A0008950590F491E02D08957A936A93FA93E7
:10071A00EA9308955A934A933A932A931A930A9317
:10072A0008955D814C813B812A8119810881089550
:00000001FF
