:0E0000000C945B000C9400000C9400000C9417
:10000E0000000C9400000C9400000C9400000C9462
:10001E0000000C9400000C9400000C9400000C9452
:10002E0000000C9400000C9400000C9400000C9442
:10003E0000000C9400000C9400000C9400000C9432
:10004E0000000C9400000C9400000C9400000C9422
:10005E0000000C9400000C9400000C9400000C9412
:10006E0000000C9400000C9400000C9400000C9402
:10007E0000000C9400000C9400000C940000000092
:10008E000B000000000548656C6C6F20576F726C9A
:10009E00640080C0080004008C000C000005940071
:1000AE0002000C05A0000000F894EE27ECBBF1E076
:1000BE00F5BFE5BFE0936C008DE0A2E0BB27ED93AA
:1000CE008A95E9F780E090E1A0E0B1E0ED93019729
:1000DE00E9F7E2EAF0E085919591009761F0A5913C
:1000EE00B59105901590BF01F00105900D92019705
:1000FE00E1F7FB01F0CF8BBFEFEFEDBFE0E1EEBF1D
:10010E00C0E0D5E00C948B00E0E0E1BBEFEFE2BB8A
:10011E00A0E1BCD09BD0839B03C0E1E0E515F1F5D7
:10012E00AAEFB0E00E9486019924EFE0E91550F1A4
:10013E009A92A72D7ED0A0E293D08824861400F543
:10014E00A42DBB27E82DF0E0AE1BBF0BE92DF0E090
:10015E00EA17FB0799F49A92A72D6BD0A62DBB2711
:10016E00E82DF0E0AE1BBF0BE1E0F0E00E94900145
:10017E00EA1BFB0BEA0DFB1DA08172D08394DECF30
:10018E009394D3CF4394E62DF0E03F96A42DB0E0A8
:10019E00EA17FB0709F44424E1E05E2E859B03C0B9
:1001AE00E2E0E51589F4AAEFB0E00E9486019924F9
:1001BE00491410F09394FCCF442019F4EFE04E2E26
:1001CE0001C04A94E2E05E2E829B7094A4CFFFCFD2
:1001DE00AA93E881E07111F0DB9A01C0DB98E88107
:1001EE00E07211F0DA9A01C0DA98E881E07411F049
:1001FE00D99A01C0D998E881E07811F0D89A01C057
:10020E00D8988DE08A95F1F7DC9A8DE08A95F1F712
:10021E00DC988DE08A95F1F764C0AA93A881D8DFA7
:10022E00E881E295E883A881D3DF85E88A95F1F726
:10023E0058C0AA93E881F0E0E45FFA4FE081A9810B
:10024E00AE0FEBDFD980C88022960895A2E04BD086
:10025E00ACE0E3DFA1E047D0E0E0CE2EDE2E089545
:10026E00AA93A881AA3021F0E0911005DE1640F085
:10027E00E0E0EA93C394AC2DDCDFA881AA3089F1CB
:10028E00D394DE9AA881C9DFDE982BC0AA93D39AA5
:10029E00D29AD19AD09AD49AD69AD59ADC98DE98D8
:1002AE00DD98E881E0931005E058E0930E05E881B3
:1002BE00E054E0930F05A4E1B0E00E94860118D04F
:1002CE0017D016D0A0E284DF88EC90E00197F1F70A
:1002DE00A8E2A3DFA4E0A1DFA5E89FDFA6E09DDFF3
:1002EE00B5DF2196089599DFA3E0B0E00C94860166
:1002FE00A0E36EDF88EC90E00197F1F70895109679
:10030E0039F080ED97E00197F1F7A8951197C9F7AD
:10031E0008951B2EBF2FF12D1A2EAE2FE12D08950D
:00000001FF
