:0A0000000C9468000C9400000C94AE
:10000A0000000C9400000C9400000C9400000C9466
:10001A0000000C9400000C9400000C9400000C9456
:10002A0000000C9400000C9400000C9400000C9446
:10003A0000000C9400000C9400000C9400000C9436
:10004A0000000C9400000C9400000C9400000C9426
:10005A0000000C9400000C9400000C9400000C9416
:10006A0000000C9400000C9400000C9400000C9406
:10007A0000000C9400000C9400000C9400000C94F6
:10008A0000001027E80364000A00010000100001C4
:10009A0010000100446F20416D202575004E6869EB
:1000AA00657420446F202575000080C001002D4E24
:1000BA00414E00494E46000002001005B4000100FE
:1000CA001405B6000000F894EE27ECBBF1E0F5BF8A
:1000DA00E5BFE0936C008DE0A2E0BB27ED938A9523
:1000EA00E9F780E090E1A0E0B1E0ED930197E9F74C
:1000FA00E2ECF0E085919591009761F0A591B591B8
:10010A0005901590BF01F00105900D920197E1F756
:10011A00FB01F0CF8BBFEFEFEDBFE0E1EEBFC0E038
:10012A00D5E00C94FE00BA93AA932597E0E0E88301
:10013A00E983EA83EB83EC830E941904BF9AC79A86
:10014A008BE68A95F1F7C798A6E2B0E00E94F00321
:10015A00C79ABF988BE68A95F1F7B79B02C0E0E091
:10016A0044C0B79BFECF8BE68A95F1F7B79902C0D8
:10017A00E0E03BC0B799FECF10E0153000F500E093
:10018A000830D8F4B79BFECF80E58A95F1F7B79B84
:10019A0012C0E12FF0E0DE011496EA0FFB1FBF0147
:1001AA001080E7E0E01BA1E00E940204E129DB01E4
:1001BA00EC93B799FECF0F5FE3CF1F5FDECFED81E0
:1001CA00AC81EA0FAE81EA0FAF81EA0F3E2FE885D4
:1001DA00E31711F0E0E009C0EE81AB85BC85EC9332
:1001EA00EC81A985BA85EC93E1E00E9420042D9662
:1001FA000895E0E8E1BBE2BBE1E0E4BBE0E0E5BB97
:10020A00A0E1ABD078D0E5E0F0E0FA93EA93A4E07D
:10021A00B0E089DFE030E9F06ED0E0E0EA93A0E0F8
:10022A000E94A203EEE9F0E0FA93EA93E42D0E9419
:10023A00A903E0E0EA93A1E00E94A203E7EAF0E062
:10024A00FA93EA93E52D0E94A903ACE2B1E00E9479
:10025A00F003ECE1E51518F4E5B3E03009F002C06B
:10026A00E1E004C0ECE1E51530F0E0E0E5BBAAEF1F
:10027A00B0E00E94F003C7CFFFCFAA93E881E071F4
:10028A0011F0DB9A01C0DB98E881E07211F0DC9A88
:10029A0001C0DC98E881E07411F0DD9A01C0DD98B4
:1002AA00E881E07811F0DE9A01C0DE988DE08A9547
:1002BA00F1F7DA9A8DE08A95F1F7DA988DE08A9566
:1002CA00F1F778C0AA93A881D8DFE881E295E8839C
:1002DA00A881D3DF85E88A95F1F76CC0AA93E881F3
:1002EA00F0E0E05FFA4FE081A981AE0FEBDF7980A1
:1002FA00688022960895A2E00E94B603ACE0E2DF8D
:10030A00A1E00E94B603E0E06E2E7E2E0895AA9325
:10031A00A881AA3011F0791448F0E0E0EA936394D6
:10032A00A62DDCDFA881AA3009F444C07394D89AB8
:10033A00A881C8DFD8983EC0BA93AA931A93A98114
:10034A00BA81ED91A983BA831E2FE03019F0A12F4B
:10035A00DEDFF5CF188123960895AA93D39AD49A0B
:10036A00D59AD69AD29AD09AD19ADA98D898D99810
:10037A009880E881E058E0931205E881E054E09320
:10038A001305A4E1B0E00E94F0030E94BC030E949E
:10039A00BC030E94BC03A0E270DF88EC90E00197E6
:1003AA00F1F7A8E28FDFA4E08DDFA5E88BDFA6E0F6
:1003BA0089DFA1DF21960895BA93AA931A930A9323
:1003CA00AA81BB8112960E940A04309759F1AA8128
:1003DA00BB8114960E940A048F01309761F00230A3
:1003EA00E0E01E0798F0F80131978F01AA81BB81DE
:1003FA001496ED93FC93AA81BB811296ED91FD911F
:10040A003196FE93EE933197AC81A083AA81BB818A
:10041A000E940A04FF232AF0ED91FD913196FE9382
:10042A00EE9306C0AA81BB81EFEFFFEFED93FC9339
:10043A001981088125960895BA93AA9326970E944E
:10044A00170410E0AC85BD85E0E0F0E0ED93FC9385
:10045A00EA89FB893196EA8BFB8B3197E4912E2F3F
:10046A00E03009F415C1E12FE03039F4253211F4F6
:10047A0011E002C00E94C4030AC1E130A9F4253286
:10048A0019F40E94C40302C112E040E000E02D32D8
:10049A0011F401E0FCC02B3211F44BE2F8C0203217
:1004AA0011F440E2F4C002C0E23039F450E013E043
:1004BA00203311F40068EBC003C0E33009F0E7C051
:1004CA00203310F02A3308F007C0AAE05A9F502DB3
:1004DA00E22FE0535E0FDBC0E22FE33649F40E94BD
:1004EA00CB03E889F989A481AA930E94D103CEC0DB
:1004FA00E33741F40E94CB030E94D7030E94890389
:10050A001E2F0AC0E03761F40E94CB030E94D70372
:10051A000E9495031E2F086002600F7730E034C0F6
:10052A00E43611F0E93611F4046002C0E53731F41B
:10053A00ECE8F0E0EE83FF8315E00CC0E83511F437
:10054A00086003C0E83709F0A1C0E6E9F0E0EE83ED
:10055A00FF8314E002FF14C00E94CB030E94E10350
:10056A00AB85AA233AF4EA85FB850E94FE03EA8753
:10057A00FB874DE2403011F01F5F01C00B7F04C0C2
:10058A000E94CB030E94E10300FD11C0151778F405
:10059A0007FF08C002FF04C00B7F242F115001C0BF
:1005AA0020E301C020E20E94C4035150EFCF312F53
:1005BA0001FF17C03030A1F003FF06C0EE81FF81B2
:1005CA002591EE83FF8305C0AE81BF812D91AE8355
:1005DA00BF830E94C403503009F051503150EACF12
:1005EA004BC020E3EE81FF810E940E04E887F98761
:1005FA00EE81FF813296EE83FF83E885F985AA852D
:10060A00BB85AE17BF0750F02F5FA885B985EA856D
:10061A00FB85EA1BFB0BEA87FB87EFCF2A3328F01F
:10062A0003FF02C0295F01C0295D04FD1AC02133FE
:10063A0020F4A885B985119709F409C0531710F059
:10064A0000FF01C013C020E207FF0BC020E30061D6
:10065A0002FF07C00B7F4A930E94D103503009F072
:10066A0051500E94C403503009F051503150A885AE
:10067A00B985129708F0B5CF00FF08C0503031F0A5
:10068A005150E0E2EA930E94D103F8CF10E0E0CEA5
:10069A00AC85BD850E940A040E941E0464960895D2
:1006AA00FF92F82E26970E9419040E94E9033097B8
:1006BA0019F4EFEFFFEF23C0DE0116960E94FA034A
:1006CA008D010E94E903EE83FF83E0E0E887E98772
:1006DA00DE011A960E94FA030E940A04FA93EA9328
:1006EA001A930A93E1EEF1E0FA93EA93DE011A967D
:1006FA00A3DE9F01AE81BF81E0E0EC93F9010E9485
:10070A0020042A96FF900895BA93AA93A991B991C1
:10071A00EE27FF276D91662311F03196FBCF0895DE
:10072A00BA93AA93AA27BB27E991F99105900020C9
:10073A0011F01196FBCFFD0108950E947301E0E0CC
:10074A00F5E0FA93EA930895FF27662777270E9430
:10075A00120484E00E9455032896A0E0B5E00C94A8
:10076A00A1010E946701A3E0B0E00C94F003A0E3AA
:10077A000E94420188EC90E00197F1F708952A93CC
:10078A00AD85BE85EF85F88909950895E889F989C7
:10079A003497E88BF98B0895AD85BE85EF85F88986
:1007AA0009950895A889B98914960E940A04EE83C6
:1007BA00FF83AE81BF810895A889B98914960E94E2
:1007CA000A04EA87FB870895DE011C960E94FA0351
:1007DA000E940A040895109639F080ED97E0019777
:1007EA00F1F7A8951197C9F708950024AF0DB01D28
:1007FA000895F195E195F0400895EE230E2EEA2F23
:10080A0019F0EE0F0A94E9F70895ED91FC9111970A
:10081A0008950590F491E02D08957A936A93FA93D6
:10082A00EA9308955A934A933A932A931A930A9306
:10083A0008955D814C813B812A811981088108953F
:00000001FF
