:060000000C9456010C9463
:1000060000000C9400000C9400000C9400000C946A
:1000160000000C9400000C9400000C9400000C945A
:1000260000000C9400000C9400000C9400000C944A
:1000360000000C9400000C9400000C9486010C94B3
:1000460000000C9400000C9400000C9400000C942A
:1000560000000C9400000C9400000C9400000C941A
:1000660000000C9400000C9400000C9400000C940A
:1000760000000C9400000C9400000C9400000C94FA
:1000860000000C940000050720600000000000003E
:1000960000040A040007000700147F147F14242AB2
:1000A6007F2A12231308646236495522500005033D
:1000B6000000001C2241000041221C00082A1C2AC4
:1000C6000808083E0808005030000008080808081C
:1000D600003030000020100804023E5149453E0021
:1000E600427F400042615149462141454B31181437
:1000F600127F1027454545393C4A49493001710967
:1001060005033649494936064949291E003636004F
:10011600000056360000000814224114141414146A
:1001260041221408000201510906324979413E7EF6
:100136001111117E7F494949363E414141227F4195
:1001460041221C7F494949417F090901013E41413C
:1001560051327F0808087F00417F41002040413F1F
:10016600017F081422417F404040407F0204027F05
:100176007F0408107F3E4141413E7F090909063E42
:100186004151215E7F0919294646494949310101F4
:100196007F01013F4040403F1F2040201F7F201825
:1001A600207F6314081463030478040361514945EE
:1001B6004300007F4141020408102041417F0000B6
:1001C60004020102044040404040000102040020B5
:1001D600545454787F48444438384444442038447E
:1001E60044487F3854545418087E090102081454B0
:1001F600543C7F0804047800447D40002040443D80
:1002060000007F10284400417F40007C04180478D9
:100216007C0804047838444444387C1414140808D0
:100226001414187C7C080404084854545420043FD1
:100236004440203C4040207C1C2040201C3C403058
:10024600403C44281028440C5050503C4464544CC4
:1002560044000836410000007F00000041360800D7
:1002660002010204027F4141417F1027E803640036
:100276000A00010000100001100001000001030740
:100286000F1F3F7FFF0096002567000001002D4EDF
:10029600414E00494E460000010007008C02010055
:1002A6007F0792020000F894EE27ECBBF1E0F5BF61
:1002B600E5BFE0936C008DE0A2E0BB27ED938A9545
:1002C600E9F780E090E1A0E0B1E0ED930197E9F76E
:1002D600EEE9F2E085919591009761F0A591B591CF
:1002E60005901590BF01F00105900D920197E1F779
:1002F600FB01F0CF8BBFEFEFEDBFE0E1EEBFC0E05B
:10030600D5E00C94A801AA93BA93EA93FA93EFB7AF
:10031600EA93E0EBE2BFF20131962F01E0EDF7E060
:10032600E415F50511F444245524E72DD201F0E037
:10033600AE17BF0714F4AF9A01C0AF98E991EFBFAB
:10034600F991E991B991A99118952897ECE8F0E00F
:10035600E883F983EE81EC7FE260EE83E37EE06181
:10036600EE83EF81E078EC63EF83DE010E943C04CC
:10037600E0E8E4BBE0E0E1BBECE0E8BBE0E0E0BFE6
:10038600E1E0E3BFE0EBE2BFE0E0E1BFE1E0E7BFD1
:10039600E0E0E0937D007894E72DF0E00E94BD0A4E
:1003A6000E94CA09A6E6B6E686EE9FE30E944F0AB9
:1003B600DF01CB01E0E0F0E067E873E40E94D70AD2
:1003C6000E94FD09E0931D05F0931E0560931F052D
:1003D60070932005E1E2F5E0FA93EA93EEE8F2E0A5
:1003E600FA93EA93E0911D05F0911E0560911F05B1
:1003F600709120050E94D20A84E00E948A03289602
:10040600EAE0EA93EA93A1E2B5E00E943108B299E4
:1004160006C07394E8ECE71511F4E6E97E2EB3996D
:1004260006C07A94E4E6E71511F4E6E97E2EB4CF29
:10043600FFCFBA93AA931A930A93AA81BB81129605
:100446000E94CA0A309729F1AA81BB8114960E949C
:10045600CA0A8F01309761F00230E0E01E0780F093
:10046600F80131978F01AA81BB811496ED93FC9315
:10047600AA81BB8112960E94EC083197AC81A083B9
:10048600AA81BB810E94CA0AFF2312F00E94EC08CF
:1004960006C0AA81BB81EFEFFFEFED93FC931981B4
:1004A600088125960895BA93AA9326970E94050B6C
:1004B60010E0AC85BD85E0E0F0E0ED93FC93EA89C1
:1004C600FB893196EA8BFB8B3197E4912E2FE03036
:1004D60009F415C1E12FE03039F4253211F411E0A9
:1004E60002C00E94F2080AC1E130A9F4253219F4CB
:1004F6000E94F20802C112E040E000E02D3211F441
:1005060001E0FCC02B3211F44BE2F8C0203211F4AA
:1005160040E2F4C002C0E23039F450E013E0203388
:1005260011F40068EBC003C0E33009F0E7C02033E4
:1005360010F02A3308F007C0AAE05A9F502DE22F88
:10054600E0535E0FDBC0E22FE33649F40E94F90860
:10055600E889F989A481AA930E94FF08CEC0E337EF
:1005660041F40E94F9080E9405090E9462081E2FA4
:100576000AC0E03761F40E94F9080E9405090E944A
:100586006E081E2F086002600F7730E034C0E43634
:1005960011F0E93611F4046002C0E53731F4E0E702
:1005A600F2E0EE83FF8315E00CC0E83511F4086035
:1005B60003C0E83709F0A1C0EAE7F2E0EE83FF8363
:1005C60014E002FF14C00E94F9080E940F09AB85CF
:1005D600AA233AF4EA85FB850E94A10AEA87FB87EB
:1005E6004DE2403011F01F5F01C00B7F04C00E9436
:1005F600F9080E940F0900FD11C0151778F407FFCE
:1006060008C002FF04C00B7F242F115001C020E355
:1006160001C020E20E94F2085150EFCF312F01FFB6
:1006260017C03030A1F003FF06C0EE81FF8125918F
:10063600EE83FF8305C0AE81BF812D91AE83BF835C
:100646000E94F208503009F051503150EACF4BC0A9
:1006560020E3EE81FF810E94CE0AE887F987EE81CA
:10066600FF813296EE83FF83E885F985AA85BB85EF
:10067600AE17BF0750F02F5FA885B985EA85FB85C1
:10068600EA1BFB0BEA87FB87EFCF2A3328F003FF31
:1006960002C0295F01C0295D04FD1AC0213320F480
:1006A600A885B985119709F409C0531710F000FF02
:1006B60001C013C020E207FF0BC020E3006102FF68
:1006C60007C00B7F4A930E94FF08503009F0515033
:1006D6000E94F208503009F051503150A885B98572
:1006E600129708F0B5CF00FF08C0503031F05150D6
:1006F600E0E2EA930E94FF08F8CF10E0E0CEAC8576
:10070600BD850E94CA0A0E940C0B64960895FF924A
:10071600F82E26970E94070B0E941709309719F4A6
:10072600EFEFFFEF23C0DE0116960E949D0A8D01B2
:100736000E941709EE83FF83E0E0E887E987DE0180
:100746001A960E949D0A0E94CA0AFA93EA931A937D
:100756000A93ECE1F2E0FA93EA93DE011A96A3DE3D
:100766009F01AE81BF81E0E0EC93F9010E940E0B80
:100776002A96FF9008950895AA931A93E09165002A
:10078600EF7EE093650018E0F6DFE981E07821F07E
:10079600E0916500E26003C0E0916500ED7FE093C3
:1007A6006500E981EE0FE983E6DFE0916500E4602C
:1007B600E0936500E0DFE0916500EB7FE093650084
:1007C600115011F7E0916500E061E0936500188132
:1007D6000C948408AA93E0916500EE7FE09365008F
:1007E600A881CADFEBC0AA93E0916500E160E093BF
:1007F6006500A881C1DFE2C0AA931A93E981E69554
:10080600E695E6951E2FE4E5E19FF001DF01EA811A
:10081600F0E0EA0FFB1FE0938505F0938605E12FD4
:1008260018810C94CB08AA93E981E068AE2FD2DF39
:10083600E981EA93A981E0DFE064AE2FCBDF0C9477
:100846008408AA93E981EA93A981EDDFE091850501
:10085600F0918605E957FA4FE0810C948408AA9333
:100866000E941E093197E957FA4FA881A083BBDF82
:10087600A5C0BA93AA930E94070BE0916400E061B9
:100886000E942109E061E0936500E0916400E46064
:100896000E942109EB7FE0936500E0916400E2602D
:1008A600E0936400E0916400E160E0936400E0910D
:1008B6006400E8600E942109E77FE0936500AAE0F2
:1008C600B0E00E949109E0916500E860E093650060
:1008D600EC81FD81309721F1E681E3701E2FEC81DA
:1008E600FD81E681E695E695E7700E2FEC81FD81A8
:1008F600E781EF773E2FAC81BD810E94CA0AE09363
:100906000405F093050512960E94CA0AE09319059C
:10091600F0931A05AC81BD8114960E94CA0A0DC0D7
:1009260010E003E032E3E0E0F0E0E0930405F0934A
:100936000505E0931905F0931A05E0931B05F0935E
:100946001C05A1E247DFE12FE460AE2F43DFE02F75
:10095600E061AE2F3FDFE32FE068AE2F3BDFA0E282
:1009660039DFA1E022D0E1E0E0930005E0E0E0938A
:100976000105E1E0E0930605E0930705E09308052D
:10098600EFEFE0930905E1E0E0931005E1E1F5E022
:10099600FA93EA93EFEFEA93A8E0B0E00E945208D8
:1009A6000FD0E1E00E940E0B60C0AA93E881E03010
:1009B60011F0ECE001C0E8E0AE2F0CDF21960895BF
:1009C6000E94070B30E0E0910105E03009F03FEFAF
:1009D600E0E0EA93A0E027DF08EF11E0F80101501C
:1009E6001040309719F0A32F3ADFF8CFE0E0EA93F2
:1009F600A0E048D30E940E0B0C94EA08AA931A931F
:100A0600ED81EA93AD811DDF1E2FE981E73011F0FC
:100A1600E83039F4EB81EA93AA810E948608EB83D9
:100A260008C0E33021F4EB81E095EB8302C0E030AF
:100A360021F4EA81E0951E2302C0E23029F4EA811E
:100A4600AB81EA231E2B0EC0E13029F4EA81AB818B
:100A5600EA231E2707C0E43029F4EA81E095AB813A
:100A6600EA2B1E23A12FFBDE188126960895AA9352
:100A760023970E94050BA889A43548F4AF85A033B7
:100A860030F4AE85A03019F0AD85A03009F4D5C19B
:100A9600EE85E887A889BB27EE85F0E0AE0FBF1F7D
:100AA600A535E0E0BE0720F0A889E4E5EA1BEE875D
:100AB6002D85AF85BB27ED85F0E0AE0FBF1FD19723
:100AC60020F0AF85E0E3EA1BED87A985A63009F0A3
:100AD6005BC0EC85E13009F4B0C1E33039F4E09154
:100AE6001B05F0911C05309709F4A7C10885ED8513
:100AF600E695E695E6953E2FE22FE77019F4AD856B
:100B06002A17E9F0A02FBB27E32FF0E00E94C20AC4
:100B1600AA85BB850E942609269526952695532FDC
:100B26005F935F5FE22FAF91EA1748F0102FE12F36
:100B36001150E03019F00E942B09F9CFF1CFAE85A4
:100B46000A1711F1EE85AA85BB85F0E00E942609F9
:100B5600ED85E77009F03F5F20E02F932F5FE32FCD
:100B6600AF91AE1788F41E851F931F5FE02FAF91DC
:100B7600AE1718F40E942B09F7CFEE85AE81BF8120
:100B8600F0E00E942609E9CFEF85E7703E2FED855C
:100B9600E03009F452C1EA85FB85EE83FF8310E05D
:100BA6000889303009F066C0AD85A83008F45DC00C
:100BB600E985E03011F0E33009F402C0E73009F4CA
:100BC60002C0E83009F402C0E93009F402C0EA3094
:100BD60021F40A93A88927DE04C0E63011F40E94A6
:100BE60038091F931F5FEE85AF91AE17B8F5A9853B
:100BF600A63069F40E943C09FA93EA930E941E0902
:100C06003197E957FA4FA0810E94CD0826C0E985A1
:100C1600E93011F450E00EC0EA3011F45FEF0AC07B
:100C26000E943C090E9445095E2FE985E73011F0D4
:100C3600E83021F40E944B095E2F06C0E33011F420
:100C4600509502C0E03019F4A52FCDDD06C00E94F4
:100C56004F09EFEFEA93AD85D1DEC3CFEF85E85FAD
:100C6600EF87ED85E850ED87DFC05D8520E0E0E0A9
:100C7600ED8781C0E32FAD85AE0FA93020F42D8519
:100C8600E0E0ED8703C0E8E0E31B2E2F3A93A22FA6
:100C96000E947B084E2FE985E63029F50E94380927
:100CA6001F931F5FEE85AF91AE17E0F40E941E09F9
:100CB6003197E957FA4FE081E423AE2FE32F0E94E4
:100CC600B50A0E945509E32FA42F0E94B50AE095A4
:100CD600E1215E2B0E943C09FA93EA93A52F0E941C
:100CE600CD08DECF2CC0E93011F450E003C0EA3065
:100CF600A9F45FEF0E944B09AE2FE32F0E94AD0AC5
:100D06005E2F1F931F5FEE85AF91AE1730F40E94E2
:100D16004F094A93A0E072DEF4CF11C01F931F5F04
:100D2600EE85AF91AE1758F40E946009AE2FE32FFF
:100D36000E94AD0AEA934A93AD8560DEEFCFED855A
:100D4600E03009F47AC0AD85A83028F4ED85E21BC1
:100D56005E2FE0E003C0532FED85E850ED8710E0ED
:100D6600EF85E85FEF87E8E0E31B2E2F0889EA8529
:100D7600FB85EE83FF83E52FF0E0EE57FD4F4491B0
:100D8600E985E63029F50E9438091F931F5FEE8535
:100D9600AF91AE17E0F40E941E093197E957FA4F5A
:100DA600E081E423AE2FE22F0E94AD0A0E9455098E
:100DB600E22FA42F0E94AD0AE095E1215E2B0E944E
:100DC6003C09FA93EA93A52F0E94CD08DECF2CC0EA
:100DD600E93011F450E003C0EA30A9F45FEF0E9455
:100DE6004B09AE2FE22F0E94B50A5E2F1F931F5F9D
:100DF600EE85AF91AE1730F40E944F094A93A0E0FA
:100E0600FDDDF4CF11C01F931F5FEE85AF91AE17C6
:100E160058F40E946009AE2FE22F0E94B50AEA93A9
:100E26004A93AD85EBDDEFCFE885AA85BB85F0E07B
:100E3600EA0FFB1FEA87FB87AACE0E940C0B61967E
:100E460008950E946D0924F0E0E0F0E00C94840817
:100E5600A881B981A435E0E0BE0724F0E3E5F0E01F
:100E66000C948408E881F9810C9484080E946D0929
:100E760024F0E0E0F0E00C948408A881B981D097D2
:100E860024F0EFE2F0E00C948408E881F9810C94F8
:100E96008408BA93AA9323970E9474098F01002E9F
:100EA600012A19F4E0E0F0E05FC00E947B090F829E
:100EB6000E947B090E820E947B090886EB85A88525
:100EC600EA1718F4E0E0F0E04FC0F8010F5F1F4F9B
:100ED6005491A885BB27EE27A50FBE1FEB85F0E032
:100EE600EA17FB0718F0E0E0F0E03EC0EE81E69579
:100EF600E695E6954E2FEE81E77009F04F5FEF819C
:100F0600E030A1F0A985BA85EC93A885EB85EA1BAC
:100F1600F0E0DF01EF81F0E00E94C20ADF01E42F7A
:100F2600F0E00E94C20AE00FF11F1EC09801E52FF3
:100F3600F0E00E0F1F1FA885AF5FA887A150EB85B5
:100F4600AE1760F4F9012F5F3F4FA491B0E0E42F94
:100F5600F0E00E94C20A0E0F1F1FEDCFF901E491C7
:100F6600A985BA85EC93F8010E940C0B2C9608957E
:100F7600E0E0E0930205A0910305BB270E948009EB
:100F8600F0E0AE0FBF1FE0910705F0E0AE0FBF1F08
:100F96006DDFE09303050895AA9321970E947409D3
:100FA600309709F455C0AF81AA3009F44FC0EF81DC
:100FB600EA93DE0117966DDFAF01309709F44AC058
:100FC600E0910605AE81EA0F3E2FA0910205BB27F0
:100FD600F0E0EA0FFB1F8F010535E0E01E0718F071
:100FE600032F1127C5DFE0910205EA93E09103057F
:100FF600EA93E885EA930E948009EA93E1E0EA939E
:101006005A934A93A7E033DDE0910205AE81EA0FD9
:10101600EA93E0910305EA93E0910605EA930E94BC
:1010260080090E948709E0910205EA93A0910305D1
:101036000E948009EA0FEA933A93E09107050E941D
:101046008709E4E5F0E0E017F10711F491DF02C04B
:10105600009302050E940C0B28960895BA93AA9352
:101066001A93EC81EA93AC810DD0A981BA81ED91F6
:10107600A983BA831E2FE03019F0A12F8DDFF5CF9B
:1010860018811BC0AA93A981BB27DBDEE09302056A
:10109600A881BB27EBDEE09303050C948408BA9382
:1010A600AA93B981A881109631F0FC81EB816A81FF
:1010B60061931197E9F7EB81FC8125960895BA9320
:1010C600AA93A991B991EE27FF276D91662311F096
:1010D6003196FBCF0895BA93AA93AA27BB27E99125
:1010E600F9910590002011F01196FBCFFD010895AE
:1010F600AA93E881F0E0EE57FD4FA491E9810E94A2
:10110600AD0A22960895AA931A93E981E73011F061
:10111600EA3019F41091000509C0E93019F410916C
:10112600010504C0E830A1F410911005E091010515
:10113600E03049F0103019F0EFEF188129C0EA814C
:10114600E095188125C0103019F4E0E0188120C020
:10115600EA8118811DC0BA93AA93EA81E13021F48D
:10116600E881F981E49114C0E23029F4A881B981BB
:101176000E94E40A0DC0E33041F4A881B981E091F0
:101186001905F0911A05099503C0A881B981EC915A
:1011960023960895AA93EB81E03029F4E881A9818A
:1011A600BA81EC9314C0E23031F4E881A981BA81A6
:1011B6000E94F00A0CC0E33051F4E981FA81FA93F7
:1011C600EA93AA81E0911B05F0911C0509952496E6
:1011D6000895ED91FD913196FE93EE9308952A932D
:1011E600AD85BE85EF85F88909950895E889F98961
:1011F6003497E88BF98B0895AD85BE85EF85F88920
:1012060009950895A889B98914960E94CA0AEE8399
:10121600FF83AE81BF810895A889B98914960E947B
:10122600CA0AEA87FB870895DE011C960E949D0A7A
:101236000E94CA0A0895A5E8B5E0CBCFE093640002
:10124600E09165000895EA0FFB1FEE83FF83089582
:10125600EC85EA93EF81F8853196EF83F88731972D
:10126600FA93EA93A0E00C94CD080A93A8890C940B
:10127600FF03EC85EA93EF81F8853196EF83F887D3
:101286003197089566277727DF01CB010C94AE08C6
:101296005A93AA850C9486080A930395E889EA93DB
:1012A6005A9308955E2FEC85EA93AF81B885882717
:1012B60099270E94AE081E2E08950A930395E88981
:1012C600EA93EE85EA93E985FA853196E987FA8706
:1012D6003197D8CFBA93AA93A881B9810E94010BFE
:1012E60008950E94050BE0910405F0910505089507
:1012F600F8010F5F1F4F04900895E0910405F091E7
:1013060005053196E4910895EA93E0E0EA93E0E07A
:10131600F0E0FA93EA93A9E00C943A05109639F0B6
:1013260080ED97E00197F1F7A8951197C9F7089511
:10133600552342F4503811F4E0FF04C03196691F7A
:10134600791F6BF050E8572711F45F9393C05F3F06
:1013560031F0660F000C57956795752F08955F93CA
:1013660000200AF093C08CC050E8192E1522880F71
:10137600991F9527550F879550E8072E0522660F6A
:10138600771F7527550F67950895689401C0E894EF
:10139600309760407040B1F0002426F0772312F4B5
:1013A6000094D0D0172E7EE1112032F07A95EE0F00
:1013B600FF1F661F111CF9CFEF2FF62F612D5F93CC
:1013C600C1DF5F9108954F93AF01FD01DA01AB01D3
:1013D600BC01CA01402D012C142E4F910895EA0F2D
:1013E600FB1F681F0895E095F0956095EF5FFF4F2E
:1013F6006F4F08955F93B8DF903849F150E815268E
:10140600703821F1572F591B2BF112F4DCDFFACF7C
:10141600583118F0AA27BB278827583028F0AB2F59
:10142600B82F88275850F9CF552329F08695B795B8
:10143600A7955A95D9F7502D512572F0D0DF38F47B
:101446006795F795E795739513F420C0BCDF7ADFAF
:101456005F910895D8F7FBCFEA1BFB0B680B51F0A1
:1014660010F40094C0DF662392F3EE0FFF1F661F91
:101476007A95CBF7EE27FF27662777275F910895A2
:10148600EFEFFFEF6FE77FEF5F910895EFEFFFEF6D
:101496006FE77FE75F9108955F9366DF703851F3DA
:1014A600903841F301240894791F23F41CF300209B
:1014B6003AF3ECCF0F921F932F933F934F9311273D
:1014C60022279927689FA0018F9F302D410D591F14
:1014D6006B9F300D411D591F8E9F27D0BF9F25D072
:1014E6006A9F23D0BE9F1DD0AF9F1BD0AE9F110D0C
:1014F600291F391F491F591FE32FF42F652F522F1C
:101506004F913F912F911F910F9066232AF0550F0F
:10151600EE1FFF1F661F02C073954BF209DF5F9136
:101526000895100D211D391F02C0200D311D491FC0
:10153600591F08950024AF0DB01D0895F195E1954A
:10154600F0400895F09560957095E195FF4F6F4FC7
:101556007F4F0895EE230E2EEA2F19F0EE0F0A9410
:10156600E9F70895EE230E2EEA2F19F0E6950A9470
:10157600E9F708956F2F660F660B762F0895FA9F89
:10158600F02DEB9FF00DEA9FE02DF10D0895ED9102
:10159600FC91119708950590F491E02D08957A93A2
:1015A6006A93FA93EA930895182E862F612D192EC1
:1015B600972F712D1B2EBF2FF12D1A2EAE2FE12D39
:1015C6000895E199FECFFF93FFB7F894AEBBBFBB7A
:1015D600E09AEDB3FFBFFF910895E19B02C0A89585
:1015E600FCCF9FB7F894AEBBBFBBE09A8DB3E817AC
:1015F60019F0EDBBE29AE19A9FBF089500240A16FE
:101606000B0608955A934A933A932A931A930A9388
:1016160008955D814C813B812A8119810881089555
:00000001FF
