:060000000C9446000C9474
:1000060000000C9400000C9400000C9400000C946A
:1000160000000C9400000C9400000C9400000C945A
:1000260000000C9400000C9400000C9400000C944A
:1000360000000C9400000C9400000C9400000C943A
:1000460000000C9400000C9400000C9400000C942A
:1000560000000C9400000C9400000C9400000C941A
:1000660000000C9400000C9400000C9400000C940A
:1000760000000C9400000C9400000C9400000C94FA
:1000860000000C940000F894EE27ECBBF1E0F5BFFD
:10009600E5BFE0936C008DE0A2E0BB27ED938A9567
:1000A600E9F780E090E1A0E0B1E0ED930197E9F790
:1000B6008BBFEFEFEDBFE0E1EEBFC0E0D5E00C9403
:1000C6006400E0E2E2B9E0E0E1BBE8E2E2BB83998A
:1000D60002C0E0E0E3B985990DC0E0E0E3B9A4E62B
:1000E600B0E00E948100E0E2E3B9A4E6B0E00E943D
:1000F600810002C0E0E2E3B9EACFFFCF109639F003
:1001060080ED97E00197F1F7A8951197C9F7089543
:00000001FF
