:0E0000000C945A000C9400000C9400000C9418
:10000E0000000C9400000C9400000C9400000C9462
:10001E0000000C9400000C9400000C9400000C9452
:10002E0000000C9400000C9400000C9400000C9442
:10003E0000000C9400000C9400000C9400000C9432
:10004E0000000C9400000C9400000C9400000C9422
:10005E0000000C9400000C9400000C9400000C9412
:10006E0000000C9400000C9400000C9400000C9402
:10007E0000000C9400000C9400000C940000000092
:10008E000000000080C001002D4E414E00494E463A
:10009E000000050005008C00020000059200010022
:1000AE00040594000000F894EE27ECBBF1E0F5BFD8
:1000BE00E5BFE0936C008DE0A2E0BB27ED938A953F
:1000CE00E9F780E090E1A0E0B1E0ED930197E9F768
:1000DE00E0EAF0E085919591009761F0A591B591D8
:1000EE0005901590BF01F00105900D920197E1F773
:1000FE00FB01F0CF8BBFEFEFEDBFE0E1EEBFC0E055
:10010E00D5E00C949700AA93E881E7B98BE18A9524
:10011E00F1F7369A349BFECF349AE4B1F5B1D3C0E1
:10012E00E0E8E8B9E0E0E7B9E3E8E6B9E0E0E0BD31
:10013E00E7BBEFEFE8BB8F9A979AA0E197D064D018
:10014E00B29922C0882499245524E3E0E51548F09D
:10015E00A52DD9DF3F010E94B2018E0E9F1E539432
:10016E00F4CFE0E0EA93A0E042D09A928A92D501D1
:10017E000E946C01D50169D0E6E2F2E08E169F0670
:10018E0010F4959A01C09598DBCFFFCFAA93E88122
:10019E00E07111F0DB9A01C0DB98E881E07211F09A
:1001AE00DC9A01C0DC98E881E07411F0DD9A01C0A0
:1001BE00DD98E881E07811F0DE9A01C0DE988DE0DE
:1001CE008A95F1F7DA9A8DE08A95F1F7DA988DE053
:1001DE008A95F1F778C0AA93A881D8DFE881E295D5
:1001EE00E883A881D3DF85E88A95F1F76CC0AA93DE
:1001FE00E881F0E0E050FB4FE081A981AE0FEBDF2C
:10020E004980D88022960895A2E00E949A01ACE01F
:10021E00E2DFA1E00E949A01E0E0DE2E4E2E08956C
:10022E00AA93A881AA3011F04C1448F0E0E0EA93AA
:10023E00D394AD2DDCDFA881AA3009F444C04394D9
:10024E00D89AA881C8DFD8983EC0BA93AA931A93B9
:10025E00A981BA81ED91A983BA831E2FE03019F0DE
:10026E00A12FDEDFF5CF188123960895AA93D39A96
:10027E00D49AD59AD69AD29AD09AD19ADA98D89800
:10028E00D998C880E881E058E0930205E881E054EF
:10029E00E0930305A4E1B0E00E94A8010E94A00132
:1002AE000E94A0010E94A001A0E270DF88EC90E005
:1002BE000197F1F7A8E28FDFA4E08DDFA5E88BDFD1
:1002CE00A6E089DFA1DF21960895BA93AA93A9919A
:1002DE00B991E991F99130962AF4E095F09531961D
:1002EE006DE26D93E89480E197E20DD088EE93E095
:1002FE000AD084E6992707D08AE005D06E2F10D059
:10030E0066276C9308956627E817F90720F0639522
:10031E00E81BF90BC9F7662311F416F008956894DB
:10032E00605D6D9308950E94F200A3E0B0E00C941E
:10033E00A801A0E30E94CD0088EC90E00197F1F7B0
:10034E000895109639F080ED97E00197F1F7A89592
:10035E001197C9F70895F695E795F695E7950895DF
:00000001FF
