:080000000C944B000C9400006D
:100008000C9400000C9400000C9400000C94000068
:100018000C9400000C9400000C9400000C94000058
:100028000C9400000C9400000C9400000C94000048
:100038000C9400000C9400000C947B000C940000BD
:100048000C9400000C9400000C9400000C94000028
:100058000C9400000C9400000C9400000C94000018
:100068000C9400000C9400000C9400000C94000008
:100078000C9400000C9400000C9400000C940000F8
:100088000C9400000000010005008C000000F894AA
:10009800EE27ECBBF1E0F5BFE5BFE0936C008DE027
:1000A800A2E0BB27ED938A95E9F780E090E1A0E014
:1000B800B1E0ED930197E9F7EEE8F0E085919591CD
:1000C800009761F0A591B59105901590BF01F001D9
:1000D80005900D920197E1F7FB01F0CF8BBFEFEF91
:1000E800EDBFE0E1EEBFC0E0D5E00C949E00EA93DE
:1000F800EFB7EA93E6E0E2BFE1E0E515B9F443942F
:10010800EFEFE41529F473944424E71509F47724F0
:10011800EBE4E41519F4EBEEE71509F007C01D9BB5
:1001280002C01D9801C01D9A44247724E991EFBFAD
:10013800E9911895E0E0E1BBE0E2E2B9E3B9EFEF5D
:10014800E2BBE0E0E0BFE3E0E3BFE6E0E2BFE0E01F
:10015800E1BFE1E0E7BFE0E0E0937D0078948399B8
:1001680004C010D01D9855240BC0859904C00AD02E
:100178001D9A552405C0829903C004D0E1E05E2E83
:10018800EECFFFCFAAEFB0E00C94CA00109639F07A
:1001980080ED97E00197F1F7A8951197C9F70895B1
:00000001FF
